{
  "_format": "hh-sol-artifact-1",
  "contractName": "CogiERC721",
  "sourceName": "contracts/CogiERC721.sol",
  "abi": [
    {
      "anonymous": false,
      "inputs": [
        {
          "indexed": true,
          "internalType": "address",
          "name": "owner",
          "type": "address"
        },
        {
          "indexed": true,
          "internalType": "address",
          "name": "approved",
          "type": "address"
        },
        {
          "indexed": true,
          "internalType": "uint256",
          "name": "tokenId",
          "type": "uint256"
        }
      ],
      "name": "Approval",
      "type": "event"
    },
    {
      "anonymous": false,
      "inputs": [
        {
          "indexed": true,
          "internalType": "address",
          "name": "owner",
          "type": "address"
        },
        {
          "indexed": true,
          "internalType": "address",
          "name": "operator",
          "type": "address"
        },
        {
          "indexed": false,
          "internalType": "bool",
          "name": "approved",
          "type": "bool"
        }
      ],
      "name": "ApprovalForAll",
      "type": "event"
    },
    {
      "anonymous": false,
      "inputs": [
        {
          "indexed": true,
          "internalType": "address",
          "name": "previousOwner",
          "type": "address"
        },
        {
          "indexed": true,
          "internalType": "address",
          "name": "newOwner",
          "type": "address"
        }
      ],
      "name": "OwnershipTransferred",
      "type": "event"
    },
    {
      "anonymous": false,
      "inputs": [
        {
          "indexed": true,
          "internalType": "bytes32",
          "name": "role",
          "type": "bytes32"
        },
        {
          "indexed": true,
          "internalType": "bytes32",
          "name": "previousAdminRole",
          "type": "bytes32"
        },
        {
          "indexed": true,
          "internalType": "bytes32",
          "name": "newAdminRole",
          "type": "bytes32"
        }
      ],
      "name": "RoleAdminChanged",
      "type": "event"
    },
    {
      "anonymous": false,
      "inputs": [
        {
          "indexed": true,
          "internalType": "bytes32",
          "name": "role",
          "type": "bytes32"
        },
        {
          "indexed": true,
          "internalType": "address",
          "name": "account",
          "type": "address"
        },
        {
          "indexed": true,
          "internalType": "address",
          "name": "sender",
          "type": "address"
        }
      ],
      "name": "RoleGranted",
      "type": "event"
    },
    {
      "anonymous": false,
      "inputs": [
        {
          "indexed": true,
          "internalType": "bytes32",
          "name": "role",
          "type": "bytes32"
        },
        {
          "indexed": true,
          "internalType": "address",
          "name": "account",
          "type": "address"
        },
        {
          "indexed": true,
          "internalType": "address",
          "name": "sender",
          "type": "address"
        }
      ],
      "name": "RoleRevoked",
      "type": "event"
    },
    {
      "anonymous": false,
      "inputs": [
        {
          "indexed": true,
          "internalType": "address",
          "name": "from",
          "type": "address"
        },
        {
          "indexed": true,
          "internalType": "address",
          "name": "to",
          "type": "address"
        },
        {
          "indexed": true,
          "internalType": "uint256",
          "name": "tokenId",
          "type": "uint256"
        }
      ],
      "name": "Transfer",
      "type": "event"
    },
    {
      "anonymous": false,
      "inputs": [
        {
          "indexed": false,
          "internalType": "address",
          "name": "recipient",
          "type": "address"
        },
        {
          "indexed": false,
          "internalType": "string",
          "name": "cid",
          "type": "string"
        },
        {
          "indexed": false,
          "internalType": "uint256",
          "name": "tokenId",
          "type": "uint256"
        }
      ],
      "name": "onAwardItem",
      "type": "event"
    },
    {
      "anonymous": false,
      "inputs": [
        {
          "indexed": false,
          "internalType": "uint256",
          "name": "tokenId",
          "type": "uint256"
        }
      ],
      "name": "onTokenBurn",
      "type": "event"
    },
    {
      "anonymous": false,
      "inputs": [
        {
          "indexed": false,
          "internalType": "address",
          "name": "from",
          "type": "address"
        },
        {
          "indexed": false,
          "internalType": "address",
          "name": "to",
          "type": "address"
        },
        {
          "indexed": false,
          "internalType": "uint256",
          "name": "tokenId",
          "type": "uint256"
        }
      ],
      "name": "onTokenTransfer",
      "type": "event"
    },
    {
      "inputs": [],
      "name": "DEFAULT_ADMIN_ROLE",
      "outputs": [
        {
          "internalType": "bytes32",
          "name": "",
          "type": "bytes32"
        }
      ],
      "stateMutability": "view",
      "type": "function"
    },
    {
      "inputs": [],
      "name": "MINTER_ROLE",
      "outputs": [
        {
          "internalType": "bytes32",
          "name": "",
          "type": "bytes32"
        }
      ],
      "stateMutability": "view",
      "type": "function"
    },
    {
      "inputs": [],
      "name": "PAUSER_ROLE",
      "outputs": [
        {
          "internalType": "bytes32",
          "name": "",
          "type": "bytes32"
        }
      ],
      "stateMutability": "view",
      "type": "function"
    },
    {
      "inputs": [
        {
          "internalType": "address",
          "name": "account",
          "type": "address"
        }
      ],
      "name": "addMinter",
      "outputs": [],
      "stateMutability": "nonpayable",
      "type": "function"
    },
    {
      "inputs": [
        {
          "internalType": "address",
          "name": "to",
          "type": "address"
        },
        {
          "internalType": "uint256",
          "name": "tokenId",
          "type": "uint256"
        }
      ],
      "name": "approve",
      "outputs": [],
      "stateMutability": "nonpayable",
      "type": "function"
    },
    {
      "inputs": [
        {
          "internalType": "address",
          "name": "recipient",
          "type": "address"
        },
        {
          "internalType": "string",
          "name": "cid",
          "type": "string"
        }
      ],
      "name": "awardItem",
      "outputs": [
        {
          "internalType": "uint256",
          "name": "",
          "type": "uint256"
        }
      ],
      "stateMutability": "nonpayable",
      "type": "function"
    },
    {
      "inputs": [
        {
          "internalType": "address",
          "name": "owner",
          "type": "address"
        }
      ],
      "name": "balanceOf",
      "outputs": [
        {
          "internalType": "uint256",
          "name": "",
          "type": "uint256"
        }
      ],
      "stateMutability": "view",
      "type": "function"
    },
    {
      "inputs": [
        {
          "internalType": "uint256",
          "name": "tokenId",
          "type": "uint256"
        }
      ],
      "name": "burn",
      "outputs": [],
      "stateMutability": "nonpayable",
      "type": "function"
    },
    {
      "inputs": [
        {
          "internalType": "uint256",
          "name": "tokenId",
          "type": "uint256"
        }
      ],
      "name": "getApproved",
      "outputs": [
        {
          "internalType": "address",
          "name": "",
          "type": "address"
        }
      ],
      "stateMutability": "view",
      "type": "function"
    },
    {
      "inputs": [
        {
          "internalType": "bytes32",
          "name": "role",
          "type": "bytes32"
        }
      ],
      "name": "getRoleAdmin",
      "outputs": [
        {
          "internalType": "bytes32",
          "name": "",
          "type": "bytes32"
        }
      ],
      "stateMutability": "view",
      "type": "function"
    },
    {
      "inputs": [
        {
          "internalType": "bytes32",
          "name": "role",
          "type": "bytes32"
        },
        {
          "internalType": "uint256",
          "name": "index",
          "type": "uint256"
        }
      ],
      "name": "getRoleMember",
      "outputs": [
        {
          "internalType": "address",
          "name": "",
          "type": "address"
        }
      ],
      "stateMutability": "view",
      "type": "function"
    },
    {
      "inputs": [
        {
          "internalType": "bytes32",
          "name": "role",
          "type": "bytes32"
        }
      ],
      "name": "getRoleMemberCount",
      "outputs": [
        {
          "internalType": "uint256",
          "name": "",
          "type": "uint256"
        }
      ],
      "stateMutability": "view",
      "type": "function"
    },
    {
      "inputs": [
        {
          "internalType": "bytes32",
          "name": "role",
          "type": "bytes32"
        },
        {
          "internalType": "address",
          "name": "account",
          "type": "address"
        }
      ],
      "name": "grantRole",
      "outputs": [],
      "stateMutability": "nonpayable",
      "type": "function"
    },
    {
      "inputs": [
        {
          "internalType": "bytes32",
          "name": "role",
          "type": "bytes32"
        },
        {
          "internalType": "address",
          "name": "account",
          "type": "address"
        }
      ],
      "name": "hasRole",
      "outputs": [
        {
          "internalType": "bool",
          "name": "",
          "type": "bool"
        }
      ],
      "stateMutability": "view",
      "type": "function"
    },
    {
      "inputs": [
        {
          "internalType": "string",
          "name": "_name",
          "type": "string"
        },
        {
          "internalType": "string",
          "name": "_symbol",
          "type": "string"
        },
        {
          "internalType": "address",
          "name": "contract_address",
          "type": "address"
        }
      ],
      "name": "initialize",
      "outputs": [],
      "stateMutability": "nonpayable",
      "type": "function"
    },
    {
      "inputs": [
        {
          "internalType": "address",
          "name": "owner",
          "type": "address"
        },
        {
          "internalType": "address",
          "name": "operator",
          "type": "address"
        }
      ],
      "name": "isApprovedForAll",
      "outputs": [
        {
          "internalType": "bool",
          "name": "",
          "type": "bool"
        }
      ],
      "stateMutability": "view",
      "type": "function"
    },
    {
      "inputs": [],
      "name": "name",
      "outputs": [
        {
          "internalType": "string",
          "name": "",
          "type": "string"
        }
      ],
      "stateMutability": "view",
      "type": "function"
    },
    {
      "inputs": [],
      "name": "owner",
      "outputs": [
        {
          "internalType": "address",
          "name": "",
          "type": "address"
        }
      ],
      "stateMutability": "view",
      "type": "function"
    },
    {
      "inputs": [
        {
          "internalType": "uint256",
          "name": "tokenId",
          "type": "uint256"
        }
      ],
      "name": "ownerOf",
      "outputs": [
        {
          "internalType": "address",
          "name": "",
          "type": "address"
        }
      ],
      "stateMutability": "view",
      "type": "function"
    },
    {
      "inputs": [
        {
          "internalType": "address",
          "name": "account",
          "type": "address"
        }
      ],
      "name": "removeMinter",
      "outputs": [],
      "stateMutability": "nonpayable",
      "type": "function"
    },
    {
      "inputs": [],
      "name": "renounceOwnership",
      "outputs": [],
      "stateMutability": "nonpayable",
      "type": "function"
    },
    {
      "inputs": [
        {
          "internalType": "bytes32",
          "name": "role",
          "type": "bytes32"
        },
        {
          "internalType": "address",
          "name": "account",
          "type": "address"
        }
      ],
      "name": "renounceRole",
      "outputs": [],
      "stateMutability": "nonpayable",
      "type": "function"
    },
    {
      "inputs": [
        {
          "internalType": "bytes32",
          "name": "role",
          "type": "bytes32"
        },
        {
          "internalType": "address",
          "name": "account",
          "type": "address"
        }
      ],
      "name": "revokeRole",
      "outputs": [],
      "stateMutability": "nonpayable",
      "type": "function"
    },
    {
      "inputs": [
        {
          "internalType": "address",
          "name": "from",
          "type": "address"
        },
        {
          "internalType": "address",
          "name": "to",
          "type": "address"
        },
        {
          "internalType": "uint256",
          "name": "tokenId",
          "type": "uint256"
        }
      ],
      "name": "safeTransferFrom",
      "outputs": [],
      "stateMutability": "nonpayable",
      "type": "function"
    },
    {
      "inputs": [
        {
          "internalType": "address",
          "name": "from",
          "type": "address"
        },
        {
          "internalType": "address",
          "name": "to",
          "type": "address"
        },
        {
          "internalType": "uint256",
          "name": "tokenId",
          "type": "uint256"
        },
        {
          "internalType": "bytes",
          "name": "_data",
          "type": "bytes"
        }
      ],
      "name": "safeTransferFrom",
      "outputs": [],
      "stateMutability": "nonpayable",
      "type": "function"
    },
    {
      "inputs": [
        {
          "internalType": "address",
          "name": "operator",
          "type": "address"
        },
        {
          "internalType": "bool",
          "name": "approved",
          "type": "bool"
        }
      ],
      "name": "setApprovalForAll",
      "outputs": [],
      "stateMutability": "nonpayable",
      "type": "function"
    },
    {
      "inputs": [
        {
          "internalType": "bytes4",
          "name": "interfaceId",
          "type": "bytes4"
        }
      ],
      "name": "supportsInterface",
      "outputs": [
        {
          "internalType": "bool",
          "name": "",
          "type": "bool"
        }
      ],
      "stateMutability": "view",
      "type": "function"
    },
    {
      "inputs": [],
      "name": "symbol",
      "outputs": [
        {
          "internalType": "string",
          "name": "",
          "type": "string"
        }
      ],
      "stateMutability": "view",
      "type": "function"
    },
    {
      "inputs": [
        {
          "internalType": "uint256",
          "name": "tokenId",
          "type": "uint256"
        }
      ],
      "name": "tokenURI",
      "outputs": [
        {
          "internalType": "string",
          "name": "",
          "type": "string"
        }
      ],
      "stateMutability": "view",
      "type": "function"
    },
    {
      "inputs": [
        {
          "internalType": "address",
          "name": "from",
          "type": "address"
        },
        {
          "internalType": "address",
          "name": "to",
          "type": "address"
        },
        {
          "internalType": "uint256",
          "name": "tokenId",
          "type": "uint256"
        }
      ],
      "name": "transferFrom",
      "outputs": [],
      "stateMutability": "nonpayable",
      "type": "function"
    },
    {
      "inputs": [
        {
          "internalType": "address",
          "name": "newOwner",
          "type": "address"
        }
      ],
      "name": "transferOwnership",
      "outputs": [],
      "stateMutability": "nonpayable",
      "type": "function"
    }
  ],
  "bytecode": "0x608060405234801561001057600080fd5b50612b28806100206000396000f3fe608060405234801561001057600080fd5b50600436106101e55760003560e01c80638da5cb5b1161010f578063c87b56dd116100a2578063d547741f11610071578063d547741f14610419578063e63ab1e91461042c578063e985e9c514610453578063f2fde38b1461048f57600080fd5b8063c87b56dd146103cb578063ca15c873146103de578063cf378343146103f1578063d53913931461040457600080fd5b8063983b2d56116100de578063983b2d561461038a578063a217fddf1461039d578063a22cb465146103a5578063b88d4fde146103b857600080fd5b80638da5cb5b1461034b5780639010d07c1461035c57806391d148541461036f57806395d89b411461038257600080fd5b80632f2ff15d1161018757806342966c681161015657806342966c681461030a5780636352211e1461031d57806370a0823114610330578063715018a61461034357600080fd5b80632f2ff15d146102be5780633092afd5146102d157806336568abe146102e457806342842e0e146102f757600080fd5b8063081812fc116101c3578063081812fc1461023c578063095ea7b31461026757806323b872dd1461027a578063248a9ca31461028d57600080fd5b806301ffc9a7146101ea57806306fdde0314610212578063077f224a14610227575b600080fd5b6101fd6101f8366004612661565b6104a2565b60405190151581526020015b60405180910390f35b61021a6104b3565b6040516102099190612867565b61023a610235366004612699565b610545565b005b61024f61024a366004612606565b61065a565b6040516001600160a01b039091168152602001610209565b61023a6102753660046125dd565b6106e2565b61023a6102883660046124a3565b6107f8565b6102b061029b366004612606565b600090815260c9602052604090206001015490565b604051908152602001610209565b61023a6102cc36600461261e565b61082a565b61023a6102df366004612457565b61084c565b61023a6102f236600461261e565b6108d3565b61023a6103053660046124a3565b6108f5565b61023a610318366004612606565b610910565b61024f61032b366004612606565b6109b5565b6102b061033e366004612457565b610a2c565b61023a610ab3565b6097546001600160a01b031661024f565b61024f61036a366004612640565b610b19565b6101fd61037d36600461261e565b610b38565b61021a610b63565b61023a610398366004612457565b610b72565b6102b0600081565b61023a6103b3366004612557565b610bf3565b61023a6103c63660046124de565b610cb8565b61021a6103d9366004612606565b610cea565b6102b06103ec366004612606565b610cf5565b6102b06103ff366004612591565b610d0c565b6102b0600080516020612ad383398151915281565b61023a61042736600461261e565b610e72565b6102b07f65d7a28e3265b37a6474929f336521b332c1681b933f6cb9f3376673440d862a81565b6101fd610461366004612471565b6001600160a01b039182166000908152606a6020908152604080832093909416825291909152205460ff1690565b61023a61049d366004612457565b610e7c565b60006104ad82610f44565b92915050565b6060606580546104c290612a10565b80601f01602080910402602001604051908101604052809291908181526020018280546104ee90612a10565b801561053b5780601f106105105761010080835404028352916020019161053b565b820191906000526020600020905b81548152906001019060200180831161051e57829003601f168201915b5050505050905090565b600054610100900460ff168061055e575060005460ff16155b6105835760405162461bcd60e51b815260040161057a906128cc565b60405180910390fd5b600054610100900460ff161580156105a5576000805461ffff19166101011790555b6105af8484610f69565b6105b7610ff0565b6105bf61106b565b6105c761106b565b6105d184846110d5565b6105d961106b565b6101c580546001600160a01b0319166001600160a01b03841617905561060060003361116a565b610618600080516020612ad38339815191523361116a565b6106427f65d7a28e3265b37a6474929f336521b332c1681b933f6cb9f3376673440d862a3361116a565b8015610654576000805461ff00191690555b50505050565b600061066582611174565b6106c65760405162461bcd60e51b815260206004820152602c60248201527f4552433732313a20617070726f76656420717565727920666f72206e6f6e657860448201526b34b9ba32b73a103a37b5b2b760a11b606482015260840161057a565b506000908152606960205260409020546001600160a01b031690565b60006106ed826109b5565b9050806001600160a01b0316836001600160a01b0316141561075b5760405162461bcd60e51b815260206004820152602160248201527f4552433732313a20617070726f76616c20746f2063757272656e74206f776e656044820152603960f91b606482015260840161057a565b336001600160a01b038216148061077757506107778133610461565b6107e95760405162461bcd60e51b815260206004820152603860248201527f4552433732313a20617070726f76652063616c6c6572206973206e6f74206f7760448201527f6e6572206e6f7220617070726f76656420666f7220616c6c0000000000000000606482015260840161057a565b6107f38383611191565b505050565b610803335b826111ff565b61081f5760405162461bcd60e51b815260040161057a9061291a565b6107f38383836112e9565b6108348282611489565b600082815260fb602052604090206107f390826114af565b610857600033610b38565b6108b85760405162461bcd60e51b815260206004820152602c60248201527f4552433732313a206d75737420686176652061646d696e20726f6c6520746f2060448201526b3932b6b7bb32a6b4b73a32b960a11b606482015260840161057a565b6108d0600080516020612ad383398151915282610e72565b50565b6108dd82826114c4565b600082815260fb602052604090206107f39082611542565b6107f383838360405180602001604052806000815250610cb8565b610919336107fd565b6109765760405162461bcd60e51b815260206004820152602860248201527f4552433732313a2063616c6c6572206973206e6f74206f776e6572206e6f7220604482015267185c1c1c9bdd995960c21b606482015260840161057a565b61097f81611557565b6040518181527f558f84871274fa7ba22832daaa5b0650d2323841cd942010b01c15c02e8a14349060200160405180910390a150565b6000818152606760205260408120546001600160a01b0316806104ad5760405162461bcd60e51b815260206004820152602960248201527f4552433732313a206f776e657220717565727920666f72206e6f6e657869737460448201526832b73a103a37b5b2b760b91b606482015260840161057a565b60006001600160a01b038216610a975760405162461bcd60e51b815260206004820152602a60248201527f4552433732313a2062616c616e636520717565727920666f7220746865207a65604482015269726f206164647265737360b01b606482015260840161057a565b506001600160a01b031660009081526068602052604090205490565b6097546001600160a01b03163314610b0d5760405162461bcd60e51b815260206004820181905260248201527f4f776e61626c653a2063616c6c6572206973206e6f7420746865206f776e6572604482015260640161057a565b610b176000611560565b565b600082815260fb60205260408120610b3190836115b2565b9392505050565b600091825260c9602090815260408084206001600160a01b0393909316845291905290205460ff1690565b6060606680546104c290612a10565b610b7d600033610b38565b610bdb5760405162461bcd60e51b815260206004820152602960248201527f4552433732313a204d75737420686176652061646d696e20726f6c6520746f2060448201526830b23226b4b73a32b960b91b606482015260840161057a565b6108d0600080516020612ad38339815191528261082a565b6001600160a01b038216331415610c4c5760405162461bcd60e51b815260206004820152601960248201527f4552433732313a20617070726f766520746f2063616c6c657200000000000000604482015260640161057a565b336000818152606a602090815260408083206001600160a01b03871680855290835292819020805460ff191686151590811790915590519081529192917f17307eab39ab6107e8899845ad3d59bd9653f200f220920489ca2b5937696c31910160405180910390a35050565b610cc233836111ff565b610cde5760405162461bcd60e51b815260040161057a9061291a565b610654848484846115be565b60606104ad826115f1565b600081815260fb602052604081206104ad90611754565b6000610d26600080516020612ad383398151915233610b38565b610d805760405162461bcd60e51b815260206004820152602560248201527f4552433732313a206d7573742068617665206d696e74657220726f6c6520746f604482015264081b5a5b9d60da1b606482015260840161057a565b6101c782604051610d919190612736565b9081526040519081900360200190205460ff1660011415610db157600080fd5b60016101c783604051610dc49190612736565b908152604051908190036020019020805460ff9290921660ff199092169190911790556000610df36101c65490565b9050610e046101c680546001019055565b610e0e848261175e565b610e188184611891565b6101c554610e30906001600160a01b03166001610bf3565b7f385adb9d85906028a2badaeddb9fbc68063ec667fad03ed368eeeaa81ecc2cc9848483604051610e6393929190612833565b60405180910390a19392505050565b6108dd828261191d565b6097546001600160a01b03163314610ed65760405162461bcd60e51b815260206004820181905260248201527f4f776e61626c653a2063616c6c6572206973206e6f7420746865206f776e6572604482015260640161057a565b6001600160a01b038116610f3b5760405162461bcd60e51b815260206004820152602660248201527f4f776e61626c653a206e6577206f776e657220697320746865207a65726f206160448201526564647265737360d01b606482015260840161057a565b6108d081611560565b60006001600160e01b03198216635a05180f60e01b14806104ad57506104ad82611943565b600054610100900460ff1680610f82575060005460ff16155b610f9e5760405162461bcd60e51b815260040161057a906128cc565b600054610100900460ff16158015610fc0576000805461ffff19166101011790555b610fc861106b565b610fd061106b565b610fda83836110d5565b80156107f3576000805461ff0019169055505050565b600054610100900460ff1680611009575060005460ff16155b6110255760405162461bcd60e51b815260040161057a906128cc565b600054610100900460ff16158015611047576000805461ffff19166101011790555b61104f61106b565b611057611968565b80156108d0576000805461ff001916905550565b600054610100900460ff1680611084575060005460ff16155b6110a05760405162461bcd60e51b815260040161057a906128cc565b600054610100900460ff16158015611057576000805461ffff191661010117905580156108d0576000805461ff001916905550565b600054610100900460ff16806110ee575060005460ff16155b61110a5760405162461bcd60e51b815260040161057a906128cc565b600054610100900460ff1615801561112c576000805461ffff19166101011790555b825161113f9060659060208601906122d7565b5081516111539060669060208501906122d7565b5080156107f3576000805461ff0019169055505050565b61083482826119c8565b6000908152606760205260409020546001600160a01b0316151590565b600081815260696020526040902080546001600160a01b0319166001600160a01b03841690811790915581906111c6826109b5565b6001600160a01b03167f8c5be1e5ebec7d5bd14f71427d1e84f3dd0314c0f7b2291e5b200ac8c7c3b92560405160405180910390a45050565b600061120a82611174565b61126b5760405162461bcd60e51b815260206004820152602c60248201527f4552433732313a206f70657261746f7220717565727920666f72206e6f6e657860448201526b34b9ba32b73a103a37b5b2b760a11b606482015260840161057a565b6000611276836109b5565b9050806001600160a01b0316846001600160a01b031614806112b15750836001600160a01b03166112a68461065a565b6001600160a01b0316145b806112e157506001600160a01b038082166000908152606a602090815260408083209388168352929052205460ff165b949350505050565b826001600160a01b03166112fc826109b5565b6001600160a01b0316146113645760405162461bcd60e51b815260206004820152602960248201527f4552433732313a207472616e73666572206f6620746f6b656e2074686174206960448201526839903737ba1037bbb760b91b606482015260840161057a565b6001600160a01b0382166113c65760405162461bcd60e51b8152602060048201526024808201527f4552433732313a207472616e7366657220746f20746865207a65726f206164646044820152637265737360e01b606482015260840161057a565b6113d1600082611191565b6001600160a01b03831660009081526068602052604081208054600192906113fa9084906129b6565b90915550506001600160a01b038216600090815260686020526040812080546001929061142890849061296b565b909155505060008181526067602052604080822080546001600160a01b0319166001600160a01b0386811691821790925591518493918716917fddf252ad1be2c89b69c2b068fc378daa952ba7f163c4a11628f55a4df523b3ef91a4505050565b600082815260c960205260409020600101546114a581336119d2565b6107f38383611a36565b6000610b31836001600160a01b038416611abc565b6001600160a01b03811633146115345760405162461bcd60e51b815260206004820152602f60248201527f416363657373436f6e74726f6c3a2063616e206f6e6c792072656e6f756e636560448201526e103937b632b9903337b91039b2b63360891b606482015260840161057a565b61153e8282611b0b565b5050565b6000610b31836001600160a01b038416611b72565b6108d081611c8f565b609780546001600160a01b038381166001600160a01b0319831681179093556040519116919082907f8be0079c531659141344cd1fd0a4f28419497f9722a3daafe3b4186f6b6457e090600090a35050565b6000610b318383611cd1565b6115c98484846112e9565b6115d584848484611d09565b6106545760405162461bcd60e51b815260040161057a9061287a565b60606115fc82611174565b6116625760405162461bcd60e51b815260206004820152603160248201527f45524337323155524953746f726167653a2055524920717565727920666f72206044820152703737b732bc34b9ba32b73a103a37b5b2b760791b606482015260840161057a565b600082815261015f60205260408120805461167c90612a10565b80601f01602080910402602001604051908101604052809291908181526020018280546116a890612a10565b80156116f55780601f106116ca576101008083540402835291602001916116f5565b820191906000526020600020905b8154815290600101906020018083116116d857829003601f168201915b505050505090506000611706611e16565b9050805160001415611719575092915050565b81511561174b578082604051602001611733929190612752565b60405160208183030381529060405292505050919050565b6112e184611e26565b60006104ad825490565b6001600160a01b0382166117b45760405162461bcd60e51b815260206004820181905260248201527f4552433732313a206d696e7420746f20746865207a65726f2061646472657373604482015260640161057a565b6117bd81611174565b1561180a5760405162461bcd60e51b815260206004820152601c60248201527f4552433732313a20746f6b656e20616c7265616479206d696e74656400000000604482015260640161057a565b6001600160a01b038216600090815260686020526040812080546001929061183390849061296b565b909155505060008181526067602052604080822080546001600160a01b0319166001600160a01b03861690811790915590518392907fddf252ad1be2c89b69c2b068fc378daa952ba7f163c4a11628f55a4df523b3ef908290a45050565b61189a82611174565b6118fd5760405162461bcd60e51b815260206004820152602e60248201527f45524337323155524953746f726167653a2055524920736574206f66206e6f6e60448201526d32bc34b9ba32b73a103a37b5b2b760911b606482015260840161057a565b600082815261015f6020908152604090912082516107f3928401906122d7565b600082815260c9602052604090206001015461193981336119d2565b6107f38383611b0b565b60006001600160e01b03198216637965db0b60e01b14806104ad57506104ad82611ef0565b600054610100900460ff1680611981575060005460ff16155b61199d5760405162461bcd60e51b815260040161057a906128cc565b600054610100900460ff161580156119bf576000805461ffff19166101011790555b61105733611560565b61153e8282611a36565b6119dc8282610b38565b61153e576119f4816001600160a01b03166014611f40565b6119ff836020611f40565b604051602001611a10929190612781565b60408051601f198184030181529082905262461bcd60e51b825261057a91600401612867565b611a408282610b38565b61153e57600082815260c9602090815260408083206001600160a01b03851684529091529020805460ff19166001179055611a783390565b6001600160a01b0316816001600160a01b0316837f2f8788117e7eff1d82e926ec794901d17c78024a50270940304540a733656f0d60405160405180910390a45050565b6000818152600183016020526040812054611b03575081546001818101845560008481526020808220909301849055845484825282860190935260409020919091556104ad565b5060006104ad565b611b158282610b38565b1561153e57600082815260c9602090815260408083206001600160a01b0385168085529252808320805460ff1916905551339285917ff6391f5c32d9c69d2a47ea670b442974b53935d1edc7fd64eb21e047a839171b9190a45050565b60008181526001830160205260408120548015611c85576000611b966001836129b6565b8554909150600090611baa906001906129b6565b9050818114611c2b576000866000018281548110611bd857634e487b7160e01b600052603260045260246000fd5b9060005260206000200154905080876000018481548110611c0957634e487b7160e01b600052603260045260246000fd5b6000918252602080832090910192909255918252600188019052604090208390555b8554869080611c4a57634e487b7160e01b600052603160045260246000fd5b6001900381819060005260206000200160009055905585600101600086815260200190815260200160002060009055600193505050506104ad565b60009150506104ad565b611c9881612122565b600081815261015f602052604090208054611cb290612a10565b1590506108d057600081815261015f602052604081206108d09161235b565b6000826000018281548110611cf657634e487b7160e01b600052603260045260246000fd5b9060005260206000200154905092915050565b60006001600160a01b0384163b15611e0b57604051630a85bd0160e11b81526001600160a01b0385169063150b7a0290611d4d9033908990889088906004016127f6565b602060405180830381600087803b158015611d6757600080fd5b505af1925050508015611d97575060408051601f3d908101601f19168201909252611d949181019061267d565b60015b611df1573d808015611dc5576040519150601f19603f3d011682016040523d82523d6000602084013e611dca565b606091505b508051611de95760405162461bcd60e51b815260040161057a9061287a565b805181602001fd5b6001600160e01b031916630a85bd0160e11b1490506112e1565b506001949350505050565b60606101c880546104c290612a10565b6060611e3182611174565b611e955760405162461bcd60e51b815260206004820152602f60248201527f4552433732314d657461646174613a2055524920717565727920666f72206e6f60448201526e3732bc34b9ba32b73a103a37b5b2b760891b606482015260840161057a565b6000611e9f611e16565b90506000815111611ebf5760405180602001604052806000815250610b31565b80611ec9846121bd565b604051602001611eda929190612752565b6040516020818303038152906040529392505050565b60006001600160e01b031982166380ac58cd60e01b1480611f2157506001600160e01b03198216635b5e139f60e01b145b806104ad57506301ffc9a760e01b6001600160e01b03198316146104ad565b60606000611f4f836002612997565b611f5a90600261296b565b67ffffffffffffffff811115611f8057634e487b7160e01b600052604160045260246000fd5b6040519080825280601f01601f191660200182016040528015611faa576020820181803683370190505b509050600360fc1b81600081518110611fd357634e487b7160e01b600052603260045260246000fd5b60200101906001600160f81b031916908160001a905350600f60fb1b8160018151811061201057634e487b7160e01b600052603260045260246000fd5b60200101906001600160f81b031916908160001a9053506000612034846002612997565b61203f90600161296b565b90505b60018111156120d3576f181899199a1a9b1b9c1cb0b131b232b360811b85600f166010811061208157634e487b7160e01b600052603260045260246000fd5b1a60f81b8282815181106120a557634e487b7160e01b600052603260045260246000fd5b60200101906001600160f81b031916908160001a90535060049490941c936120cc816129f9565b9050612042565b508315610b315760405162461bcd60e51b815260206004820181905260248201527f537472696e67733a20686578206c656e67746820696e73756666696369656e74604482015260640161057a565b600061212d826109b5565b905061213a600083611191565b6001600160a01b03811660009081526068602052604081208054600192906121639084906129b6565b909155505060008281526067602052604080822080546001600160a01b0319169055518391906001600160a01b038416907fddf252ad1be2c89b69c2b068fc378daa952ba7f163c4a11628f55a4df523b3ef908390a45050565b6060816121e15750506040805180820190915260018152600360fc1b602082015290565b8160005b811561220b57806121f581612a4b565b91506122049050600a83612983565b91506121e5565b60008167ffffffffffffffff81111561223457634e487b7160e01b600052604160045260246000fd5b6040519080825280601f01601f19166020018201604052801561225e576020820181803683370190505b5090505b84156112e1576122736001836129b6565b9150612280600a86612a66565b61228b90603061296b565b60f81b8183815181106122ae57634e487b7160e01b600052603260045260246000fd5b60200101906001600160f81b031916908160001a9053506122d0600a86612983565b9450612262565b8280546122e390612a10565b90600052602060002090601f016020900481019282612305576000855561234b565b82601f1061231e57805160ff191683800117855561234b565b8280016001018555821561234b579182015b8281111561234b578251825591602001919060010190612330565b50612357929150612391565b5090565b50805461236790612a10565b6000825580601f10612377575050565b601f0160209004906000526020600020908101906108d091905b5b808211156123575760008155600101612392565b600067ffffffffffffffff808411156123c1576123c1612aa6565b604051601f8501601f19908116603f011681019082821181831017156123e9576123e9612aa6565b8160405280935085815286868601111561240257600080fd5b858560208301376000602087830101525050509392505050565b80356001600160a01b038116811461243357600080fd5b919050565b600082601f830112612448578081fd5b610b31838335602085016123a6565b600060208284031215612468578081fd5b610b318261241c565b60008060408385031215612483578081fd5b61248c8361241c565b915061249a6020840161241c565b90509250929050565b6000806000606084860312156124b7578081fd5b6124c08461241c565b92506124ce6020850161241c565b9150604084013590509250925092565b600080600080608085870312156124f3578081fd5b6124fc8561241c565b935061250a6020860161241c565b925060408501359150606085013567ffffffffffffffff81111561252c578182fd5b8501601f8101871361253c578182fd5b61254b878235602084016123a6565b91505092959194509250565b60008060408385031215612569578182fd5b6125728361241c565b915060208301358015158114612586578182fd5b809150509250929050565b600080604083850312156125a3578182fd5b6125ac8361241c565b9150602083013567ffffffffffffffff8111156125c7578182fd5b6125d385828601612438565b9150509250929050565b600080604083850312156125ef578182fd5b6125f88361241c565b946020939093013593505050565b600060208284031215612617578081fd5b5035919050565b60008060408385031215612630578182fd5b8235915061249a6020840161241c565b60008060408385031215612652578182fd5b50508035926020909101359150565b600060208284031215612672578081fd5b8135610b3181612abc565b60006020828403121561268e578081fd5b8151610b3181612abc565b6000806000606084860312156126ad578283fd5b833567ffffffffffffffff808211156126c4578485fd5b6126d087838801612438565b945060208601359150808211156126e5578384fd5b506126f286828701612438565b9250506127016040850161241c565b90509250925092565b600081518084526127228160208601602086016129cd565b601f01601f19169290920160200192915050565b600082516127488184602087016129cd565b9190910192915050565b600083516127648184602088016129cd565b8351908301906127788183602088016129cd565b01949350505050565b7f416363657373436f6e74726f6c3a206163636f756e74200000000000000000008152600083516127b98160178501602088016129cd565b7001034b99036b4b9b9b4b733903937b6329607d1b60179184019182015283516127ea8160288401602088016129cd565b01602801949350505050565b6001600160a01b03858116825284166020820152604081018390526080606082018190526000906128299083018461270a565b9695505050505050565b6001600160a01b03841681526060602082018190526000906128579083018561270a565b9050826040830152949350505050565b602081526000610b31602083018461270a565b60208082526032908201527f4552433732313a207472616e7366657220746f206e6f6e20455243373231526560408201527131b2b4bb32b91034b6b83632b6b2b73a32b960711b606082015260800190565b6020808252602e908201527f496e697469616c697a61626c653a20636f6e747261637420697320616c72656160408201526d191e481a5b9a5d1a585b1a5e995960921b606082015260800190565b60208082526031908201527f4552433732313a207472616e736665722063616c6c6572206973206e6f74206f6040820152701ddb995c881b9bdc88185c1c1c9bdd9959607a1b606082015260800190565b6000821982111561297e5761297e612a7a565b500190565b60008261299257612992612a90565b500490565b60008160001904831182151516156129b1576129b1612a7a565b500290565b6000828210156129c8576129c8612a7a565b500390565b60005b838110156129e85781810151838201526020016129d0565b838111156106545750506000910152565b600081612a0857612a08612a7a565b506000190190565b600181811c90821680612a2457607f821691505b60208210811415612a4557634e487b7160e01b600052602260045260246000fd5b50919050565b6000600019821415612a5f57612a5f612a7a565b5060010190565b600082612a7557612a75612a90565b500690565b634e487b7160e01b600052601160045260246000fd5b634e487b7160e01b600052601260045260246000fd5b634e487b7160e01b600052604160045260246000fd5b6001600160e01b0319811681146108d057600080fdfe9f2df0fed2c77648de5860a4cc508cd0818c85b8b8a1ab4ceeef8d981c8956a6a26469706673582212208d064515c5e19f49b63bc7870a8dcb1648ed1284978543567f82f201d37d30ed64736f6c63430008040033",
  "linkReferences": {},
  "deployedLinkReferences": {}
}