{
  "_format": "hh-sol-artifact-1",
  "contractName": "CogiNFTMarket",
  "sourceName": "contracts/CogiNFTMarket.sol",
  "abi": [
    {
      "anonymous": false,
      "inputs": [
        {
          "indexed": true,
          "internalType": "uint256",
          "name": "itemId",
          "type": "uint256"
        },
        {
          "indexed": true,
          "internalType": "address",
          "name": "nftContract",
          "type": "address"
        },
        {
          "indexed": true,
          "internalType": "uint256",
          "name": "tokenId",
          "type": "uint256"
        },
        {
          "indexed": false,
          "internalType": "address",
          "name": "seller",
          "type": "address"
        },
        {
          "indexed": false,
          "internalType": "address",
          "name": "owner",
          "type": "address"
        },
        {
          "indexed": false,
          "internalType": "uint256",
          "name": "price",
          "type": "uint256"
        },
        {
          "indexed": false,
          "internalType": "bool",
          "name": "sold",
          "type": "bool"
        }
      ],
      "name": "MarketItemCreated",
      "type": "event"
    },
    {
      "inputs": [],
      "name": "getAllItems",
      "outputs": [
        {
          "components": [
            {
              "internalType": "uint256",
              "name": "itemId",
              "type": "uint256"
            },
            {
              "internalType": "address",
              "name": "nftContract",
              "type": "address"
            },
            {
              "internalType": "uint256",
              "name": "tokenId",
              "type": "uint256"
            },
            {
              "internalType": "address payable",
              "name": "seller",
              "type": "address"
            },
            {
              "internalType": "address payable",
              "name": "owner",
              "type": "address"
            },
            {
              "internalType": "uint256",
              "name": "price",
              "type": "uint256"
            },
            {
              "internalType": "bool",
              "name": "sold",
              "type": "bool"
            }
          ],
          "internalType": "struct CogiNFTMarket.MarketItem[]",
          "name": "",
          "type": "tuple[]"
        }
      ],
      "stateMutability": "view",
      "type": "function"
    },
    {
      "inputs": [],
      "name": "getItemsCreated",
      "outputs": [
        {
          "components": [
            {
              "internalType": "uint256",
              "name": "itemId",
              "type": "uint256"
            },
            {
              "internalType": "address",
              "name": "nftContract",
              "type": "address"
            },
            {
              "internalType": "uint256",
              "name": "tokenId",
              "type": "uint256"
            },
            {
              "internalType": "address payable",
              "name": "seller",
              "type": "address"
            },
            {
              "internalType": "address payable",
              "name": "owner",
              "type": "address"
            },
            {
              "internalType": "uint256",
              "name": "price",
              "type": "uint256"
            },
            {
              "internalType": "bool",
              "name": "sold",
              "type": "bool"
            }
          ],
          "internalType": "struct CogiNFTMarket.MarketItem[]",
          "name": "",
          "type": "tuple[]"
        }
      ],
      "stateMutability": "view",
      "type": "function"
    },
    {
      "inputs": [],
      "name": "getListingPrice",
      "outputs": [
        {
          "internalType": "uint256",
          "name": "",
          "type": "uint256"
        }
      ],
      "stateMutability": "view",
      "type": "function"
    },
    {
      "inputs": [],
      "name": "getMyNFTs",
      "outputs": [
        {
          "components": [
            {
              "internalType": "uint256",
              "name": "itemId",
              "type": "uint256"
            },
            {
              "internalType": "address",
              "name": "nftContract",
              "type": "address"
            },
            {
              "internalType": "uint256",
              "name": "tokenId",
              "type": "uint256"
            },
            {
              "internalType": "address payable",
              "name": "seller",
              "type": "address"
            },
            {
              "internalType": "address payable",
              "name": "owner",
              "type": "address"
            },
            {
              "internalType": "uint256",
              "name": "price",
              "type": "uint256"
            },
            {
              "internalType": "bool",
              "name": "sold",
              "type": "bool"
            }
          ],
          "internalType": "struct CogiNFTMarket.MarketItem[]",
          "name": "",
          "type": "tuple[]"
        }
      ],
      "stateMutability": "view",
      "type": "function"
    },
    {
      "inputs": [],
      "name": "initialize",
      "outputs": [],
      "stateMutability": "nonpayable",
      "type": "function"
    },
    {
      "inputs": [
        {
          "internalType": "address",
          "name": "nftContract",
          "type": "address"
        },
        {
          "internalType": "uint256",
          "name": "tokenId",
          "type": "uint256"
        },
        {
          "internalType": "uint256",
          "name": "price",
          "type": "uint256"
        }
      ],
      "name": "publishItemToMarket",
      "outputs": [],
      "stateMutability": "payable",
      "type": "function"
    },
    {
      "inputs": [
        {
          "internalType": "address",
          "name": "nftContract",
          "type": "address"
        },
        {
          "internalType": "uint256",
          "name": "itemId",
          "type": "uint256"
        }
      ],
      "name": "purchaseExecution",
      "outputs": [],
      "stateMutability": "payable",
      "type": "function"
    }
  ],
  "bytecode": "0x608060405234801561001057600080fd5b50610e3d806100206000396000f3fe6080604052600436106100705760003560e01c8063629cb2e41161004e578063629cb2e4146100cf5780638129fc1c146100e4578063dad379ac146100f9578063e8b08f041461010c57600080fd5b806312e85585146100755780634ba1d6aa146100985780635bbbe271146100ba575b600080fd5b34801561008157600080fd5b506036546040519081526020015b60405180910390f35b3480156100a457600080fd5b506100ad610121565b60405161008f9190610d13565b6100cd6100c8366004610cb8565b6102ca565b005b3480156100db57600080fd5b506100ad61051e565b3480156100f057600080fd5b506100cd610705565b6100cd610107366004610ce1565b6107d5565b34801561011857600080fd5b506100ad610a79565b6060600061012e60335490565b9050600061013b60345490565b6033546101489190610dbf565b90506000808267ffffffffffffffff81111561017457634e487b7160e01b600052604160045260246000fd5b6040519080825280602002602001820160405280156101ad57816020015b61019a610c60565b8152602001906001900390816101925790505b50905060005b848110156102c15760006037816101cb846001610da7565b81526020810191909152604001600020600401546001600160a01b031614156102af5760006101fb826001610da7565b600081815260376020908152604091829020825160e0810184528154815260018201546001600160a01b039081169382019390935260028201549381019390935260038101548216606084015260048101549091166080830152600581015460a0830152600681015460ff16151560c083015285519293509185908790811061029457634e487b7160e01b600052603260045260246000fd5b60209081029190910101526102aa600186610da7565b945050505b806102b981610dd6565b9150506101b3565b50949350505050565b600260015414156103225760405162461bcd60e51b815260206004820152601f60248201527f5265656e7472616e637947756172643a207265656e7472616e742063616c6c0060448201526064015b60405180910390fd5b60026001819055600082815260376020526040902060058101549101543482146103b6576040805162461bcd60e51b81526020600482015260248101919091527f506c65617365207375626d6974207468652061736b696e67207072696365206960448201527f6e206f7264657220746f20636f6d706c657465207468652070757263686173656064820152608401610319565b6000838152603760205260408082206003015490516001600160a01b03909116903480156108fc029184818181858888f193505050509050806104325760405162461bcd60e51b81526020600482015260146024820152732330b4b632b2103a379039b2b7321022ba3432b960611b6044820152606401610319565b6040516323b872dd60e01b8152306004820152336024820152604481018390526001600160a01b038616906323b872dd90606401600060405180830381600087803b15801561048057600080fd5b505af1158015610494573d6000803e3d6000fd5b50505060008581526037602052604090206004810180546001600160a01b03191633179055600601805460ff19166001179055506104d6603480546001019055565b6035546036546040516001600160a01b039092169181156108fc0291906000818181858888f19350505050158015610512573d6000803e3d6000fd5b50506001805550505050565b6060600061052b60335490565b905060008060005b8381101561058e57336037600061054b846001610da7565b81526020810191909152604001600020600401546001600160a01b0316141561057c57610579600184610da7565b92505b8061058681610dd6565b915050610533565b5060008267ffffffffffffffff8111156105b857634e487b7160e01b600052604160045260246000fd5b6040519080825280602002602001820160405280156105f157816020015b6105de610c60565b8152602001906001900390816105d65790505b50905060005b848110156102c157336037600061060f846001610da7565b81526020810191909152604001600020600401546001600160a01b031614156106f357600061063f826001610da7565b600081815260376020908152604091829020825160e0810184528154815260018201546001600160a01b039081169382019390935260028201549381019390935260038101548216606084015260048101549091166080830152600581015460a0830152600681015460ff16151560c08301528551929350918590879081106106d857634e487b7160e01b600052603260045260246000fd5b60209081029190910101526106ee600186610da7565b945050505b806106fd81610dd6565b9150506105f7565b600054610100900460ff168061071e575060005460ff16155b6107815760405162461bcd60e51b815260206004820152602e60248201527f496e697469616c697a61626c653a20636f6e747261637420697320616c72656160448201526d191e481a5b9a5d1a585b1a5e995960921b6064820152608401610319565b600054610100900460ff161580156107a3576000805461ffff19166101011790555b603580546001600160a01b0319163317905566038d7ea4c6800060365580156107d2576000805461ff00191690555b50565b600260015414156108285760405162461bcd60e51b815260206004820152601f60248201527f5265656e7472616e637947756172643a207265656e7472616e742063616c6c006044820152606401610319565b60026001558061087a5760405162461bcd60e51b815260206004820152601c60248201527f5072696365206d757374206265206174206c65617374203120776569000000006044820152606401610319565b6036548110156108e45760405162461bcd60e51b815260206004820152602f60248201527f5072696365206d75737420626520657175616c206f722067726561746572207460448201526e6f206c697374696e6720707269636560881b6064820152608401610319565b6108f2603380546001019055565b60006108fd60335490565b6040805160e0810182528281526001600160a01b0387811660208084018281528486018a8152336060870181815260006080890181815260a08a018e815260c08b018381528d84526037909852918b902099518a55945160018a018054918a166001600160a01b0319928316179055935160028a015590516003890180549189169185169190911790559251600480890180549290981691909316179095559051600586015590516006909401805494151560ff199095169490941790935592516323b872dd60e01b81529182015230602482015260448101869052919250906323b872dd90606401600060405180830381600087803b158015610a0057600080fd5b505af1158015610a14573d6000803e3d6000fd5b505060408051338152600060208201819052818301879052606082015290518693506001600160a01b038816925084917f045dfa01dcba2b36aba1d3dc4a874f4b0c5d2fbeb8d2c4b34a7d88c8d8f929d1919081900360800190a45050600180555050565b60606000610a8660335490565b905060008060005b83811015610ae9573360376000610aa6846001610da7565b81526020810191909152604001600020600301546001600160a01b03161415610ad757610ad4600184610da7565b92505b80610ae181610dd6565b915050610a8e565b5060008267ffffffffffffffff811115610b1357634e487b7160e01b600052604160045260246000fd5b604051908082528060200260200182016040528015610b4c57816020015b610b39610c60565b815260200190600190039081610b315790505b50905060005b848110156102c1573360376000610b6a846001610da7565b81526020810191909152604001600020600301546001600160a01b03161415610c4e576000610b9a826001610da7565b600081815260376020908152604091829020825160e0810184528154815260018201546001600160a01b039081169382019390935260028201549381019390935260038101548216606084015260048101549091166080830152600581015460a0830152600681015460ff16151560c0830152855192935091859087908110610c3357634e487b7160e01b600052603260045260246000fd5b6020908102919091010152610c49600186610da7565b945050505b80610c5881610dd6565b915050610b52565b6040805160e081018252600080825260208201819052918101829052606081018290526080810182905260a0810182905260c081019190915290565b80356001600160a01b0381168114610cb357600080fd5b919050565b60008060408385031215610cca578182fd5b610cd383610c9c565b946020939093013593505050565b600080600060608486031215610cf5578081fd5b610cfe84610c9c565b95602085013595506040909401359392505050565b602080825282518282018190526000919060409081850190868401855b82811015610d9a57815180518552868101516001600160a01b039081168887015286820151878701526060808301518216908701526080808301519091169086015260a0808201519086015260c09081015115159085015260e09093019290850190600101610d30565b5091979650505050505050565b60008219821115610dba57610dba610df1565b500190565b600082821015610dd157610dd1610df1565b500390565b6000600019821415610dea57610dea610df1565b5060010190565b634e487b7160e01b600052601160045260246000fdfea264697066735822122084e67df09b8dd6c9d728c2f3b181a3467a72e36ffd4a9dcb5d13145eeb32198864736f6c63430008040033",
  "linkReferences": {},
  "deployedLinkReferences": {}
}