{
  "_format": "hh-sol-artifact-1",
  "contractName": "CogiERC20",
  "sourceName": "contracts/CogiERC20.sol",
  "abi": [
    {
      "anonymous": false,
      "inputs": [
        {
          "indexed": true,
          "internalType": "address",
          "name": "owner",
          "type": "address"
        },
        {
          "indexed": true,
          "internalType": "address",
          "name": "spender",
          "type": "address"
        },
        {
          "indexed": false,
          "internalType": "uint256",
          "name": "value",
          "type": "uint256"
        }
      ],
      "name": "Approval",
      "type": "event"
    },
    {
      "anonymous": false,
      "inputs": [
        {
          "indexed": true,
          "internalType": "address",
          "name": "previousOwner",
          "type": "address"
        },
        {
          "indexed": true,
          "internalType": "address",
          "name": "newOwner",
          "type": "address"
        }
      ],
      "name": "OwnershipTransferred",
      "type": "event"
    },
    {
      "anonymous": false,
      "inputs": [
        {
          "indexed": false,
          "internalType": "address",
          "name": "account",
          "type": "address"
        }
      ],
      "name": "Paused",
      "type": "event"
    },
    {
      "anonymous": false,
      "inputs": [
        {
          "indexed": true,
          "internalType": "bytes32",
          "name": "role",
          "type": "bytes32"
        },
        {
          "indexed": true,
          "internalType": "bytes32",
          "name": "previousAdminRole",
          "type": "bytes32"
        },
        {
          "indexed": true,
          "internalType": "bytes32",
          "name": "newAdminRole",
          "type": "bytes32"
        }
      ],
      "name": "RoleAdminChanged",
      "type": "event"
    },
    {
      "anonymous": false,
      "inputs": [
        {
          "indexed": true,
          "internalType": "bytes32",
          "name": "role",
          "type": "bytes32"
        },
        {
          "indexed": true,
          "internalType": "address",
          "name": "account",
          "type": "address"
        },
        {
          "indexed": true,
          "internalType": "address",
          "name": "sender",
          "type": "address"
        }
      ],
      "name": "RoleGranted",
      "type": "event"
    },
    {
      "anonymous": false,
      "inputs": [
        {
          "indexed": true,
          "internalType": "bytes32",
          "name": "role",
          "type": "bytes32"
        },
        {
          "indexed": true,
          "internalType": "address",
          "name": "account",
          "type": "address"
        },
        {
          "indexed": true,
          "internalType": "address",
          "name": "sender",
          "type": "address"
        }
      ],
      "name": "RoleRevoked",
      "type": "event"
    },
    {
      "anonymous": false,
      "inputs": [
        {
          "indexed": false,
          "internalType": "uint256",
          "name": "id",
          "type": "uint256"
        }
      ],
      "name": "Snapshot",
      "type": "event"
    },
    {
      "anonymous": false,
      "inputs": [
        {
          "indexed": true,
          "internalType": "address",
          "name": "from",
          "type": "address"
        },
        {
          "indexed": true,
          "internalType": "address",
          "name": "to",
          "type": "address"
        },
        {
          "indexed": false,
          "internalType": "uint256",
          "name": "value",
          "type": "uint256"
        }
      ],
      "name": "Transfer",
      "type": "event"
    },
    {
      "anonymous": false,
      "inputs": [
        {
          "indexed": false,
          "internalType": "address",
          "name": "account",
          "type": "address"
        }
      ],
      "name": "Unpaused",
      "type": "event"
    },
    {
      "inputs": [],
      "name": "DEFAULT_ADMIN_ROLE",
      "outputs": [
        {
          "internalType": "bytes32",
          "name": "",
          "type": "bytes32"
        }
      ],
      "stateMutability": "view",
      "type": "function"
    },
    {
      "inputs": [],
      "name": "FREEZE_ROLE",
      "outputs": [
        {
          "internalType": "bytes32",
          "name": "",
          "type": "bytes32"
        }
      ],
      "stateMutability": "view",
      "type": "function"
    },
    {
      "inputs": [],
      "name": "MINTER_ROLE",
      "outputs": [
        {
          "internalType": "bytes32",
          "name": "",
          "type": "bytes32"
        }
      ],
      "stateMutability": "view",
      "type": "function"
    },
    {
      "inputs": [
        {
          "internalType": "address",
          "name": "account",
          "type": "address"
        }
      ],
      "name": "addMinter",
      "outputs": [],
      "stateMutability": "nonpayable",
      "type": "function"
    },
    {
      "inputs": [
        {
          "internalType": "address",
          "name": "owner",
          "type": "address"
        },
        {
          "internalType": "address",
          "name": "spender",
          "type": "address"
        }
      ],
      "name": "allowance",
      "outputs": [
        {
          "internalType": "uint256",
          "name": "",
          "type": "uint256"
        }
      ],
      "stateMutability": "view",
      "type": "function"
    },
    {
      "inputs": [
        {
          "internalType": "address",
          "name": "spender",
          "type": "address"
        },
        {
          "internalType": "uint256",
          "name": "amount",
          "type": "uint256"
        }
      ],
      "name": "approve",
      "outputs": [
        {
          "internalType": "bool",
          "name": "",
          "type": "bool"
        }
      ],
      "stateMutability": "nonpayable",
      "type": "function"
    },
    {
      "inputs": [
        {
          "internalType": "address",
          "name": "account",
          "type": "address"
        }
      ],
      "name": "balanceOf",
      "outputs": [
        {
          "internalType": "uint256",
          "name": "",
          "type": "uint256"
        }
      ],
      "stateMutability": "view",
      "type": "function"
    },
    {
      "inputs": [
        {
          "internalType": "address",
          "name": "account",
          "type": "address"
        },
        {
          "internalType": "uint256",
          "name": "snapshotId",
          "type": "uint256"
        }
      ],
      "name": "balanceOfAt",
      "outputs": [
        {
          "internalType": "uint256",
          "name": "",
          "type": "uint256"
        }
      ],
      "stateMutability": "view",
      "type": "function"
    },
    {
      "inputs": [],
      "name": "decimals",
      "outputs": [
        {
          "internalType": "uint8",
          "name": "",
          "type": "uint8"
        }
      ],
      "stateMutability": "view",
      "type": "function"
    },
    {
      "inputs": [
        {
          "internalType": "address",
          "name": "spender",
          "type": "address"
        },
        {
          "internalType": "uint256",
          "name": "subtractedValue",
          "type": "uint256"
        }
      ],
      "name": "decreaseAllowance",
      "outputs": [
        {
          "internalType": "bool",
          "name": "",
          "type": "bool"
        }
      ],
      "stateMutability": "nonpayable",
      "type": "function"
    },
    {
      "inputs": [
        {
          "internalType": "bytes32",
          "name": "role",
          "type": "bytes32"
        }
      ],
      "name": "getRoleAdmin",
      "outputs": [
        {
          "internalType": "bytes32",
          "name": "",
          "type": "bytes32"
        }
      ],
      "stateMutability": "view",
      "type": "function"
    },
    {
      "inputs": [
        {
          "internalType": "bytes32",
          "name": "role",
          "type": "bytes32"
        },
        {
          "internalType": "uint256",
          "name": "index",
          "type": "uint256"
        }
      ],
      "name": "getRoleMember",
      "outputs": [
        {
          "internalType": "address",
          "name": "",
          "type": "address"
        }
      ],
      "stateMutability": "view",
      "type": "function"
    },
    {
      "inputs": [
        {
          "internalType": "bytes32",
          "name": "role",
          "type": "bytes32"
        }
      ],
      "name": "getRoleMemberCount",
      "outputs": [
        {
          "internalType": "uint256",
          "name": "",
          "type": "uint256"
        }
      ],
      "stateMutability": "view",
      "type": "function"
    },
    {
      "inputs": [
        {
          "internalType": "bytes32",
          "name": "role",
          "type": "bytes32"
        },
        {
          "internalType": "address",
          "name": "account",
          "type": "address"
        }
      ],
      "name": "grantRole",
      "outputs": [],
      "stateMutability": "nonpayable",
      "type": "function"
    },
    {
      "inputs": [
        {
          "internalType": "bytes32",
          "name": "role",
          "type": "bytes32"
        },
        {
          "internalType": "address",
          "name": "account",
          "type": "address"
        }
      ],
      "name": "hasRole",
      "outputs": [
        {
          "internalType": "bool",
          "name": "",
          "type": "bool"
        }
      ],
      "stateMutability": "view",
      "type": "function"
    },
    {
      "inputs": [
        {
          "internalType": "address",
          "name": "spender",
          "type": "address"
        },
        {
          "internalType": "uint256",
          "name": "addedValue",
          "type": "uint256"
        }
      ],
      "name": "increaseAllowance",
      "outputs": [
        {
          "internalType": "bool",
          "name": "",
          "type": "bool"
        }
      ],
      "stateMutability": "nonpayable",
      "type": "function"
    },
    {
      "inputs": [
        {
          "internalType": "string",
          "name": "_name",
          "type": "string"
        },
        {
          "internalType": "string",
          "name": "_symbol",
          "type": "string"
        },
        {
          "internalType": "uint256",
          "name": "__maxSupply",
          "type": "uint256"
        }
      ],
      "name": "initialize",
      "outputs": [],
      "stateMutability": "nonpayable",
      "type": "function"
    },
    {
      "inputs": [
        {
          "internalType": "uint256",
          "name": "amount",
          "type": "uint256"
        }
      ],
      "name": "mint",
      "outputs": [],
      "stateMutability": "nonpayable",
      "type": "function"
    },
    {
      "inputs": [],
      "name": "name",
      "outputs": [
        {
          "internalType": "string",
          "name": "",
          "type": "string"
        }
      ],
      "stateMutability": "view",
      "type": "function"
    },
    {
      "inputs": [],
      "name": "owner",
      "outputs": [
        {
          "internalType": "address",
          "name": "",
          "type": "address"
        }
      ],
      "stateMutability": "view",
      "type": "function"
    },
    {
      "inputs": [],
      "name": "paused",
      "outputs": [
        {
          "internalType": "bool",
          "name": "",
          "type": "bool"
        }
      ],
      "stateMutability": "view",
      "type": "function"
    },
    {
      "inputs": [
        {
          "internalType": "address",
          "name": "account",
          "type": "address"
        }
      ],
      "name": "removeMinter",
      "outputs": [],
      "stateMutability": "nonpayable",
      "type": "function"
    },
    {
      "inputs": [],
      "name": "renounceOwnership",
      "outputs": [],
      "stateMutability": "nonpayable",
      "type": "function"
    },
    {
      "inputs": [
        {
          "internalType": "bytes32",
          "name": "role",
          "type": "bytes32"
        },
        {
          "internalType": "address",
          "name": "account",
          "type": "address"
        }
      ],
      "name": "renounceRole",
      "outputs": [],
      "stateMutability": "nonpayable",
      "type": "function"
    },
    {
      "inputs": [
        {
          "internalType": "bytes32",
          "name": "role",
          "type": "bytes32"
        },
        {
          "internalType": "address",
          "name": "account",
          "type": "address"
        }
      ],
      "name": "revokeRole",
      "outputs": [],
      "stateMutability": "nonpayable",
      "type": "function"
    },
    {
      "inputs": [
        {
          "internalType": "bytes4",
          "name": "interfaceId",
          "type": "bytes4"
        }
      ],
      "name": "supportsInterface",
      "outputs": [
        {
          "internalType": "bool",
          "name": "",
          "type": "bool"
        }
      ],
      "stateMutability": "view",
      "type": "function"
    },
    {
      "inputs": [],
      "name": "symbol",
      "outputs": [
        {
          "internalType": "string",
          "name": "",
          "type": "string"
        }
      ],
      "stateMutability": "view",
      "type": "function"
    },
    {
      "inputs": [],
      "name": "totalSupply",
      "outputs": [
        {
          "internalType": "uint256",
          "name": "",
          "type": "uint256"
        }
      ],
      "stateMutability": "view",
      "type": "function"
    },
    {
      "inputs": [
        {
          "internalType": "uint256",
          "name": "snapshotId",
          "type": "uint256"
        }
      ],
      "name": "totalSupplyAt",
      "outputs": [
        {
          "internalType": "uint256",
          "name": "",
          "type": "uint256"
        }
      ],
      "stateMutability": "view",
      "type": "function"
    },
    {
      "inputs": [
        {
          "internalType": "address",
          "name": "recipient",
          "type": "address"
        },
        {
          "internalType": "uint256",
          "name": "amount",
          "type": "uint256"
        }
      ],
      "name": "transfer",
      "outputs": [
        {
          "internalType": "bool",
          "name": "",
          "type": "bool"
        }
      ],
      "stateMutability": "nonpayable",
      "type": "function"
    },
    {
      "inputs": [
        {
          "internalType": "address",
          "name": "sender",
          "type": "address"
        },
        {
          "internalType": "address",
          "name": "recipient",
          "type": "address"
        },
        {
          "internalType": "uint256",
          "name": "amount",
          "type": "uint256"
        }
      ],
      "name": "transferFrom",
      "outputs": [
        {
          "internalType": "bool",
          "name": "",
          "type": "bool"
        }
      ],
      "stateMutability": "nonpayable",
      "type": "function"
    },
    {
      "inputs": [
        {
          "internalType": "address",
          "name": "newOwner",
          "type": "address"
        }
      ],
      "name": "transferOwnership",
      "outputs": [],
      "stateMutability": "nonpayable",
      "type": "function"
    }
  ],
  "bytecode": "0x608060405234801561001057600080fd5b50612245806100206000396000f3fe608060405234801561001057600080fd5b50600436106101f05760003560e01c80639010d07c1161010f578063a9059cbb116100a2578063d547741f11610071578063d547741f1461042f578063dd62ed3e14610442578063f2fde38b1461047b578063f9e857231461048e57600080fd5b8063a9059cbb146103e1578063b119490e146103f4578063ca15c87314610407578063d53913931461041a57600080fd5b8063983b2d56116100de578063983b2d56146103a0578063a0712d68146103b3578063a217fddf146103c6578063a457c2d7146103ce57600080fd5b80639010d07c1461035f57806391d148541461037257806395d89b4114610385578063981b24d01461038d57600080fd5b8063313ce567116101875780635c975abb116101565780635c975abb146102fe57806370a0823114610309578063715018a6146103325780638da5cb5b1461033a57600080fd5b8063313ce567146102b657806336568abe146102c557806339509351146102d85780634ee2cd7e146102eb57600080fd5b806323b872dd116101c357806323b872dd14610257578063248a9ca31461026a5780632f2ff15d1461028e5780633092afd5146102a357600080fd5b806301ffc9a7146101f557806306fdde031461021d578063095ea7b31461023257806318160ddd14610245575b600080fd5b610208610203366004611f4f565b6104b5565b60405190151581526020015b60405180910390f35b6102256104e0565b6040516102149190612056565b610208610240366004611ecb565b610572565b6035545b604051908152602001610214565b610208610265366004611e90565b610588565b610249610278366004611ef4565b600090815261015f602052604090206001015490565b6102a161029c366004611f0c565b610637565b005b6102a16102b1366004611e44565b61065f565b60405160128152602001610214565b6102a16102d3366004611f0c565b6106dd565b6102086102e6366004611ecb565b610700565b6102496102f9366004611ecb565b61073c565b60975460ff16610208565b610249610317366004611e44565b6001600160a01b031660009081526033602052604090205490565b6102a1610795565b6065546001600160a01b03165b6040516001600160a01b039091168152602001610214565b61034761036d366004611f2e565b6107fb565b610208610380366004611f0c565b61081b565b610225610847565b61024961039b366004611ef4565b610856565b6102a16103ae366004611e44565b610881565b6102a16103c1366004611ef4565b6108fa565b610249600081565b6102086103dc366004611ecb565b610968565b6102086103ef366004611ecb565b610a01565b6102a1610402366004611f77565b610a0e565b610249610415366004611ef4565b610abe565b6102496000805160206121f083398151915281565b6102a161043d366004611f0c565b610ad6565b610249610450366004611e5e565b6001600160a01b03918216600090815260346020908152604080832093909416825291909152205490565b6102a1610489366004611e44565b610ae0565b6102497f5789b43a60de35bcedee40618ae90979bab7d1315fd4b079234241bdab19936d81565b60006001600160e01b03198216635a05180f60e01b14806104da57506104da82610ba8565b92915050565b6060603680546104ef90612188565b80601f016020809104026020016040519081016040528092919081815260200182805461051b90612188565b80156105685780601f1061053d57610100808354040283529160200191610568565b820191906000526020600020905b81548152906001019060200180831161054b57829003601f168201915b5050505050905090565b600061057f338484610bdd565b50600192915050565b6000610595848484610d01565b6001600160a01b03841660009081526034602090815260408083203384529091529020548281101561061f5760405162461bcd60e51b815260206004820152602860248201527f45524332303a207472616e7366657220616d6f756e74206578636565647320616044820152676c6c6f77616e636560c01b60648201526084015b60405180910390fd5b61062c8533858403610bdd565b506001949350505050565b6106418282610eda565b60008281526101916020526040902061065a9082610f01565b505050565b61066a60003361081b565b6106c25760405162461bcd60e51b8152602060048201526024808201527f6d75737420686176652061646d696e20726f6c6520746f2072656d6f76654d69604482015263373a32b960e11b6064820152608401610616565b6106da6000805160206121f083398151915282610ad6565b50565b6106e78282610f16565b60008281526101916020526040902061065a9082610f94565b3360008181526034602090815260408083206001600160a01b0387168452909152812054909161057f9185906107379086906120d7565b610bdd565b6001600160a01b038216600090815260fb6020526040812081908190610763908590610fa9565b915091508161078a576001600160a01b03851660009081526033602052604090205461078c565b805b95945050505050565b6065546001600160a01b031633146107ef5760405162461bcd60e51b815260206004820181905260248201527f4f776e61626c653a2063616c6c6572206973206e6f7420746865206f776e65726044820152606401610616565b6107f960006110ae565b565b6000828152610191602052604081206108149083611100565b9392505050565b600091825261015f602090815260408084206001600160a01b0393909316845291905290205460ff1690565b6060603780546104ef90612188565b60008060006108668460fc610fa9565b915091508161087757603554610879565b805b949350505050565b61088c60003361081b565b6108e25760405162461bcd60e51b815260206004820152602160248201527f4d75737420686176652061646d696e20726f6c6520746f206164644d696e74656044820152603960f91b6064820152608401610616565b6106da6000805160206121f083398151915282610637565b6109126000805160206121f08339815191523361081b565b61095e5760405162461bcd60e51b815260206004820152601d60248201527f4d7573742068617665206d696e74657220726f6c6520746f206d696e740000006044820152606401610616565b6106da338261110c565b3360009081526034602090815260408083206001600160a01b0386168452909152812054828110156109ea5760405162461bcd60e51b815260206004820152602560248201527f45524332303a2064656372656173656420616c6c6f77616e63652062656c6f77604482015264207a65726f60d81b6064820152608401610616565b6109f73385858403610bdd565b5060019392505050565b600061057f338484610d01565b600054610100900460ff1680610a27575060005460ff16155b610a435760405162461bcd60e51b815260040161061690612089565b600054610100900460ff16158015610a65576000805461ffff19166101011790555b610a6f8484611179565b610a776111f8565b610a82600033611273565b610a9a6000805160206121f083398151915233611273565b6101c382905560006101c4558015610ab8576000805461ff00191690555b50505050565b6000818152610191602052604081206104da9061127d565b6106e78282611287565b6065546001600160a01b03163314610b3a5760405162461bcd60e51b815260206004820181905260248201527f4f776e61626c653a2063616c6c6572206973206e6f7420746865206f776e65726044820152606401610616565b6001600160a01b038116610b9f5760405162461bcd60e51b815260206004820152602660248201527f4f776e61626c653a206e6577206f776e657220697320746865207a65726f206160448201526564647265737360d01b6064820152608401610616565b6106da816110ae565b60006001600160e01b03198216637965db0b60e01b14806104da57506301ffc9a760e01b6001600160e01b03198316146104da565b6001600160a01b038316610c3f5760405162461bcd60e51b8152602060048201526024808201527f45524332303a20617070726f76652066726f6d20746865207a65726f206164646044820152637265737360e01b6064820152608401610616565b6001600160a01b038216610ca05760405162461bcd60e51b815260206004820152602260248201527f45524332303a20617070726f766520746f20746865207a65726f206164647265604482015261737360f01b6064820152608401610616565b6001600160a01b0383811660008181526034602090815260408083209487168084529482529182902085905590518481527f8c5be1e5ebec7d5bd14f71427d1e84f3dd0314c0f7b2291e5b200ac8c7c3b925910160405180910390a3505050565b6001600160a01b038316610d655760405162461bcd60e51b815260206004820152602560248201527f45524332303a207472616e736665722066726f6d20746865207a65726f206164604482015264647265737360d81b6064820152608401610616565b6001600160a01b038216610dc75760405162461bcd60e51b815260206004820152602360248201527f45524332303a207472616e7366657220746f20746865207a65726f206164647260448201526265737360e81b6064820152608401610616565b610dd28383836112ae565b6001600160a01b03831660009081526033602052604090205481811015610e4a5760405162461bcd60e51b815260206004820152602660248201527f45524332303a207472616e7366657220616d6f756e7420657863656564732062604482015265616c616e636560d01b6064820152608401610616565b6001600160a01b03808516600090815260336020526040808220858503905591851681529081208054849290610e819084906120d7565b92505081905550826001600160a01b0316846001600160a01b03167fddf252ad1be2c89b69c2b068fc378daa952ba7f163c4a11628f55a4df523b3ef84604051610ecd91815260200190565b60405180910390a3610ab8565b600082815261015f6020526040902060010154610ef78133611330565b61065a8383611394565b6000610814836001600160a01b03841661141b565b6001600160a01b0381163314610f865760405162461bcd60e51b815260206004820152602f60248201527f416363657373436f6e74726f6c3a2063616e206f6e6c792072656e6f756e636560448201526e103937b632b9903337b91039b2b63360891b6064820152608401610616565b610f90828261146a565b5050565b6000610814836001600160a01b0384166114d2565b60008060008411610ff55760405162461bcd60e51b815260206004820152601660248201527504552433230536e617073686f743a20696420697320360541b6044820152606401610616565b610ffd6115ef565b84111561104c5760405162461bcd60e51b815260206004820152601d60248201527f4552433230536e617073686f743a206e6f6e6578697374656e742069640000006044820152606401610616565b600061105884866115ff565b84549091508114156110715760008092509250506110a7565b600184600101828154811061109657634e487b7160e01b600052603260045260246000fd5b906000526020600020015492509250505b9250929050565b606580546001600160a01b038381166001600160a01b0319831681179093556040519116919082907f8be0079c531659141344cd1fd0a4f28419497f9722a3daafe3b4186f6b6457e090600090a35050565b600061081483836116de565b6101c3546101c45461111e9083611716565b111561115d5760405162461bcd60e51b815260206004820152600e60248201526d4f766572206d6178537570706c7960901b6044820152606401610616565b6101c45461116b9082611716565b6101c455610f908282611722565b600054610100900460ff1680611192575060005460ff16155b6111ae5760405162461bcd60e51b815260040161061690612089565b600054610100900460ff161580156111d0576000805461ffff19166101011790555b6111d861180d565b6111e28383611877565b801561065a576000805461ff0019169055505050565b600054610100900460ff1680611211575060005460ff16155b61122d5760405162461bcd60e51b815260040161061690612089565b600054610100900460ff1615801561124f576000805461ffff19166101011790555b61125761180d565b61125f61190c565b80156106da576000805461ff001916905550565b610641828261196c565b60006104da825490565b600082815261015f60205260409020600101546112a48133611330565b61065a838361146a565b6112d87f5789b43a60de35bcedee40618ae90979bab7d1315fd4b079234241bdab19936d8461081b565b156113255760405162461bcd60e51b815260206004820181905260248201527f4163636f756e742074656d706f726172696c7920756e617661696c61626c652e6044820152606401610616565b61065a838383611976565b61133a828261081b565b610f9057611352816001600160a01b031660146119c9565b61135d8360206119c9565b60405160200161136e929190611fe1565b60408051601f198184030181529082905262461bcd60e51b825261061691600401612056565b61139e828261081b565b610f9057600082815261015f602090815260408083206001600160a01b03851684529091529020805460ff191660011790556113d73390565b6001600160a01b0316816001600160a01b0316837f2f8788117e7eff1d82e926ec794901d17c78024a50270940304540a733656f0d60405160405180910390a45050565b6000818152600183016020526040812054611462575081546001818101845560008481526020808220909301849055845484825282860190935260409020919091556104da565b5060006104da565b611474828261081b565b15610f9057600082815261015f602090815260408083206001600160a01b0385168085529252808320805460ff1916905551339285917ff6391f5c32d9c69d2a47ea670b442974b53935d1edc7fd64eb21e047a839171b9190a45050565b600081815260018301602052604081205480156115e55760006114f660018361212e565b855490915060009061150a9060019061212e565b905081811461158b57600086600001828154811061153857634e487b7160e01b600052603260045260246000fd5b906000526020600020015490508087600001848154811061156957634e487b7160e01b600052603260045260246000fd5b6000918252602080832090910192909255918252600188019052604090208390555b85548690806115aa57634e487b7160e01b600052603160045260246000fd5b6001900381819060005260206000200160009055905585600101600086815260200190815260200160002060009055600193505050506104da565b60009150506104da565b60006115fa60fe5490565b905090565b8154600090611610575060006104da565b82546000905b8082101561167a57600061162a8383611bab565b90508486828154811061164d57634e487b7160e01b600052603260045260246000fd5b9060005260206000200154111561166657809150611674565b6116718160016120d7565b92505b50611616565b6000821180156116bd5750838561169260018561212e565b815481106116b057634e487b7160e01b600052603260045260246000fd5b9060005260206000200154145b156116d6576116cd60018361212e565b925050506104da565b5090506104da565b600082600001828154811061170357634e487b7160e01b600052603260045260246000fd5b9060005260206000200154905092915050565b600061081482846120d7565b6001600160a01b0382166117785760405162461bcd60e51b815260206004820152601f60248201527f45524332303a206d696e7420746f20746865207a65726f2061646472657373006044820152606401610616565b611784600083836112ae565b806035600082825461179691906120d7565b90915550506001600160a01b038216600090815260336020526040812080548392906117c39084906120d7565b90915550506040518181526001600160a01b038316906000907fddf252ad1be2c89b69c2b068fc378daa952ba7f163c4a11628f55a4df523b3ef9060200160405180910390a35050565b600054610100900460ff1680611826575060005460ff16155b6118425760405162461bcd60e51b815260040161061690612089565b600054610100900460ff1615801561125f576000805461ffff191661010117905580156106da576000805461ff001916905550565b600054610100900460ff1680611890575060005460ff16155b6118ac5760405162461bcd60e51b815260040161061690612089565b600054610100900460ff161580156118ce576000805461ffff19166101011790555b82516118e1906036906020860190611d0d565b5081516118f5906037906020850190611d0d565b50801561065a576000805461ff0019169055505050565b600054610100900460ff1680611925575060005460ff16155b6119415760405162461bcd60e51b815260040161061690612089565b600054610100900460ff16158015611963576000805461ffff19166101011790555b61125f336110ae565b610f908282611394565b611981838383611bc6565b6001600160a01b0383166119a05761199882611c2c565b61065a611c5f565b6001600160a01b0382166119b75761199883611c2c565b6119c083611c2c565b61065a82611c2c565b606060006119d883600261210f565b6119e39060026120d7565b67ffffffffffffffff811115611a0957634e487b7160e01b600052604160045260246000fd5b6040519080825280601f01601f191660200182016040528015611a33576020820181803683370190505b509050600360fc1b81600081518110611a5c57634e487b7160e01b600052603260045260246000fd5b60200101906001600160f81b031916908160001a905350600f60fb1b81600181518110611a9957634e487b7160e01b600052603260045260246000fd5b60200101906001600160f81b031916908160001a9053506000611abd84600261210f565b611ac89060016120d7565b90505b6001811115611b5c576f181899199a1a9b1b9c1cb0b131b232b360811b85600f1660108110611b0a57634e487b7160e01b600052603260045260246000fd5b1a60f81b828281518110611b2e57634e487b7160e01b600052603260045260246000fd5b60200101906001600160f81b031916908160001a90535060049490941c93611b5581612171565b9050611acb565b5083156108145760405162461bcd60e51b815260206004820181905260248201527f537472696e67733a20686578206c656e67746820696e73756666696369656e746044820152606401610616565b6000611bba60028484186120ef565b610814908484166120d7565b60975460ff161561065a5760405162461bcd60e51b815260206004820152602a60248201527f45524332305061757361626c653a20746f6b656e207472616e736665722077686044820152691a5b19481c185d5cd95960b21b6064820152608401610616565b6001600160a01b038116600090815260fb602090815260408083206033909252909120546106da9190611c6d565b611c6d565b6107f960fc611c5a60355490565b6000611c776115ef565b905080611c8384611cb7565b101561065a578254600180820185556000858152602080822090930193909355938401805494850181558252902090910155565b8054600090611cc857506000919050565b81548290611cd89060019061212e565b81548110611cf657634e487b7160e01b600052603260045260246000fd5b90600052602060002001549050919050565b919050565b828054611d1990612188565b90600052602060002090601f016020900481019282611d3b5760008555611d81565b82601f10611d5457805160ff1916838001178555611d81565b82800160010185558215611d81579182015b82811115611d81578251825591602001919060010190611d66565b50611d8d929150611d91565b5090565b5b80821115611d8d5760008155600101611d92565b80356001600160a01b0381168114611d0857600080fd5b600082601f830112611dcd578081fd5b813567ffffffffffffffff80821115611de857611de86121d9565b604051601f8301601f19908116603f01168101908282118183101715611e1057611e106121d9565b81604052838152866020858801011115611e28578485fd5b8360208701602083013792830160200193909352509392505050565b600060208284031215611e55578081fd5b61081482611da6565b60008060408385031215611e70578081fd5b611e7983611da6565b9150611e8760208401611da6565b90509250929050565b600080600060608486031215611ea4578081fd5b611ead84611da6565b9250611ebb60208501611da6565b9150604084013590509250925092565b60008060408385031215611edd578182fd5b611ee683611da6565b946020939093013593505050565b600060208284031215611f05578081fd5b5035919050565b60008060408385031215611f1e578182fd5b82359150611e8760208401611da6565b60008060408385031215611f40578182fd5b50508035926020909101359150565b600060208284031215611f60578081fd5b81356001600160e01b031981168114610814578182fd5b600080600060608486031215611f8b578283fd5b833567ffffffffffffffff80821115611fa2578485fd5b611fae87838801611dbd565b94506020860135915080821115611fc3578384fd5b50611fd086828701611dbd565b925050604084013590509250925092565b7f416363657373436f6e74726f6c3a206163636f756e7420000000000000000000815260008351612019816017850160208801612145565b7001034b99036b4b9b9b4b733903937b6329607d1b601791840191820152835161204a816028840160208801612145565b01602801949350505050565b6020815260008251806020840152612075816040850160208701612145565b601f01601f19169190910160400192915050565b6020808252602e908201527f496e697469616c697a61626c653a20636f6e747261637420697320616c72656160408201526d191e481a5b9a5d1a585b1a5e995960921b606082015260800190565b600082198211156120ea576120ea6121c3565b500190565b60008261210a57634e487b7160e01b81526012600452602481fd5b500490565b6000816000190483118215151615612129576121296121c3565b500290565b600082821015612140576121406121c3565b500390565b60005b83811015612160578181015183820152602001612148565b83811115610ab85750506000910152565b600081612180576121806121c3565b506000190190565b600181811c9082168061219c57607f821691505b602082108114156121bd57634e487b7160e01b600052602260045260246000fd5b50919050565b634e487b7160e01b600052601160045260246000fd5b634e487b7160e01b600052604160045260246000fdfe9f2df0fed2c77648de5860a4cc508cd0818c85b8b8a1ab4ceeef8d981c8956a6a26469706673582212202a5037588f523df691f13c329e806566e1baa6761aa806dd9bc8e60a535bd5f964736f6c63430008040033",
  "linkReferences": {},
  "deployedLinkReferences": {}
}